{
  "contractName": "SupplyChain",
  "abi": [
    {
      "anonymous": false,
      "inputs": [
        {
          "indexed": false,
          "internalType": "uint256",
          "name": "id",
          "type": "uint256"
        },
        {
          "indexed": false,
          "internalType": "string",
          "name": "name",
          "type": "string"
        },
        {
          "indexed": true,
          "internalType": "address",
          "name": "sender",
          "type": "address"
        },
        {
          "indexed": true,
          "internalType": "address",
          "name": "receiver",
          "type": "address"
        }
      ],
      "name": "ProductAdded",
      "type": "event"
    },
    {
      "inputs": [],
      "name": "productCount",
      "outputs": [
        {
          "internalType": "uint256",
          "name": "",
          "type": "uint256"
        }
      ],
      "stateMutability": "view",
      "type": "function"
    },
    {
      "inputs": [
        {
          "internalType": "uint256",
          "name": "",
          "type": "uint256"
        }
      ],
      "name": "products",
      "outputs": [
        {
          "internalType": "uint256",
          "name": "id",
          "type": "uint256"
        },
        {
          "internalType": "string",
          "name": "barcodeId",
          "type": "string"
        },
        {
          "internalType": "string",
          "name": "name",
          "type": "string"
        },
        {
          "internalType": "string",
          "name": "orderNo",
          "type": "string"
        },
        {
          "internalType": "string",
          "name": "origin",
          "type": "string"
        },
        {
          "internalType": "string",
          "name": "packingDate",
          "type": "string"
        },
        {
          "internalType": "string",
          "name": "expiryDate",
          "type": "string"
        },
        {
          "internalType": "string",
          "name": "lotNo",
          "type": "string"
        },
        {
          "internalType": "address",
          "name": "sender",
          "type": "address"
        },
        {
          "internalType": "address",
          "name": "receiver",
          "type": "address"
        },
        {
          "internalType": "string",
          "name": "senderEmail",
          "type": "string"
        },
        {
          "internalType": "string",
          "name": "receiverEmail",
          "type": "string"
        }
      ],
      "stateMutability": "view",
      "type": "function"
    },
    {
      "inputs": [
        {
          "internalType": "string",
          "name": "_barcodeId",
          "type": "string"
        },
        {
          "internalType": "string",
          "name": "_name",
          "type": "string"
        },
        {
          "internalType": "string",
          "name": "_orderNo",
          "type": "string"
        },
        {
          "internalType": "string",
          "name": "_origin",
          "type": "string"
        },
        {
          "internalType": "string",
          "name": "_packingDate",
          "type": "string"
        },
        {
          "internalType": "string",
          "name": "_expiryDate",
          "type": "string"
        },
        {
          "internalType": "string",
          "name": "_lotNo",
          "type": "string"
        },
        {
          "internalType": "address",
          "name": "_receiver",
          "type": "address"
        },
        {
          "internalType": "string",
          "name": "_senderEmail",
          "type": "string"
        },
        {
          "internalType": "string",
          "name": "_receiverEmail",
          "type": "string"
        }
      ],
      "name": "addProduct",
      "outputs": [],
      "stateMutability": "nonpayable",
      "type": "function"
    }
  ],
  "bytecode": "0x608060405234801561001057600080fd5b50611012806100206000396000f3fe608060405234801561001057600080fd5b50600436106100415760003560e01c80637acc0b2014610046578063cf9d3e6e14610081578063e0f6ef871461009d575b600080fd5b610060600480360381019061005b9190610bd6565b6100bb565b6040516100789c9b9a99989796959493929190610ca1565b60405180910390f35b61009b60048036038101906100969190610a23565b610623565b005b6100a56108e8565b6040516100b29190610c56565b60405180910390f35b60006020528060005260406000206000915090508060000154908060010180546100e490610e95565b80601f016020809104026020016040519081016040528092919081815260200182805461011090610e95565b801561015d5780601f106101325761010080835404028352916020019161015d565b820191906000526020600020905b81548152906001019060200180831161014057829003601f168201915b50505050509080600201805461017290610e95565b80601f016020809104026020016040519081016040528092919081815260200182805461019e90610e95565b80156101eb5780601f106101c0576101008083540402835291602001916101eb565b820191906000526020600020905b8154815290600101906020018083116101ce57829003601f168201915b50505050509080600301805461020090610e95565b80601f016020809104026020016040519081016040528092919081815260200182805461022c90610e95565b80156102795780601f1061024e57610100808354040283529160200191610279565b820191906000526020600020905b81548152906001019060200180831161025c57829003601f168201915b50505050509080600401805461028e90610e95565b80601f01602080910402602001604051908101604052809291908181526020018280546102ba90610e95565b80156103075780601f106102dc57610100808354040283529160200191610307565b820191906000526020600020905b8154815290600101906020018083116102ea57829003601f168201915b50505050509080600501805461031c90610e95565b80601f016020809104026020016040519081016040528092919081815260200182805461034890610e95565b80156103955780601f1061036a57610100808354040283529160200191610395565b820191906000526020600020905b81548152906001019060200180831161037857829003601f168201915b5050505050908060060180546103aa90610e95565b80601f01602080910402602001604051908101604052809291908181526020018280546103d690610e95565b80156104235780601f106103f857610100808354040283529160200191610423565b820191906000526020600020905b81548152906001019060200180831161040657829003601f168201915b50505050509080600701805461043890610e95565b80601f016020809104026020016040519081016040528092919081815260200182805461046490610e95565b80156104b15780601f10610486576101008083540402835291602001916104b1565b820191906000526020600020905b81548152906001019060200180831161049457829003601f168201915b5050505050908060080160009054906101000a900473ffffffffffffffffffffffffffffffffffffffff16908060090160009054906101000a900473ffffffffffffffffffffffffffffffffffffffff169080600a01805461051290610e95565b80601f016020809104026020016040519081016040528092919081815260200182805461053e90610e95565b801561058b5780601f106105605761010080835404028352916020019161058b565b820191906000526020600020905b81548152906001019060200180831161056e57829003601f168201915b50505050509080600b0180546105a090610e95565b80601f01602080910402602001604051908101604052809291908181526020018280546105cc90610e95565b80156106195780601f106105ee57610100808354040283529160200191610619565b820191906000526020600020905b8154815290600101906020018083116105fc57829003601f168201915b505050505090508c565b6001600081548092919061063690610ec7565b919050555060405180610180016040528060015481526020018b81526020018a81526020018981526020018881526020018781526020018681526020018581526020013373ffffffffffffffffffffffffffffffffffffffff1681526020018473ffffffffffffffffffffffffffffffffffffffff1681526020018381526020018281525060008060015481526020019081526020016000206000820151816000015560208201518160010190805190602001906106f59291906108ee565b5060408201518160020190805190602001906107129291906108ee565b50606082015181600301908051906020019061072f9291906108ee565b50608082015181600401908051906020019061074c9291906108ee565b5060a08201518160050190805190602001906107699291906108ee565b5060c08201518160060190805190602001906107869291906108ee565b5060e08201518160070190805190602001906107a39291906108ee565b506101008201518160080160006101000a81548173ffffffffffffffffffffffffffffffffffffffff021916908373ffffffffffffffffffffffffffffffffffffffff1602179055506101208201518160090160006101000a81548173ffffffffffffffffffffffffffffffffffffffff021916908373ffffffffffffffffffffffffffffffffffffffff16021790555061014082015181600a0190805190602001906108519291906108ee565b5061016082015181600b01908051906020019061086f9291906108ee565b509050508273ffffffffffffffffffffffffffffffffffffffff163373ffffffffffffffffffffffffffffffffffffffff167f83e1d9c1684fa191fe6fb6e19a69d3be31946991959022fa1738a7a10a0cb41f6001548c6040516108d4929190610c71565b60405180910390a350505050505050505050565b60015481565b8280546108fa90610e95565b90600052602060002090601f01602090048101928261091c5760008555610963565b82601f1061093557805160ff1916838001178555610963565b82800160010185558215610963579182015b82811115610962578251825591602001919060010190610947565b5b5090506109709190610974565b5090565b5b8082111561098d576000816000905550600101610975565b5090565b60006109a461099f84610dcb565b610d9a565b9050828152602081018484840111156109bc57600080fd5b6109c7848285610e53565b509392505050565b6000813590506109de81610fae565b92915050565b600082601f8301126109f557600080fd5b8135610a05848260208601610991565b91505092915050565b600081359050610a1d81610fc5565b92915050565b6000806000806000806000806000806101408b8d031215610a4357600080fd5b60008b013567ffffffffffffffff811115610a5d57600080fd5b610a698d828e016109e4565b9a505060208b013567ffffffffffffffff811115610a8657600080fd5b610a928d828e016109e4565b99505060408b013567ffffffffffffffff811115610aaf57600080fd5b610abb8d828e016109e4565b98505060608b013567ffffffffffffffff811115610ad857600080fd5b610ae48d828e016109e4565b97505060808b013567ffffffffffffffff811115610b0157600080fd5b610b0d8d828e016109e4565b96505060a08b013567ffffffffffffffff811115610b2a57600080fd5b610b368d828e016109e4565b95505060c08b013567ffffffffffffffff811115610b5357600080fd5b610b5f8d828e016109e4565b94505060e0610b708d828e016109cf565b9350506101008b013567ffffffffffffffff811115610b8e57600080fd5b610b9a8d828e016109e4565b9250506101208b013567ffffffffffffffff811115610bb857600080fd5b610bc48d828e016109e4565b9150509295989b9194979a5092959850565b600060208284031215610be857600080fd5b6000610bf684828501610a0e565b91505092915050565b610c0881610e17565b82525050565b6000610c1982610dfb565b610c238185610e06565b9350610c33818560208601610e62565b610c3c81610f9d565b840191505092915050565b610c5081610e49565b82525050565b6000602082019050610c6b6000830184610c47565b92915050565b6000604082019050610c866000830185610c47565b8181036020830152610c988184610c0e565b90509392505050565b600061018082019050610cb7600083018f610c47565b8181036020830152610cc9818e610c0e565b90508181036040830152610cdd818d610c0e565b90508181036060830152610cf1818c610c0e565b90508181036080830152610d05818b610c0e565b905081810360a0830152610d19818a610c0e565b905081810360c0830152610d2d8189610c0e565b905081810360e0830152610d418188610c0e565b9050610d51610100830187610bff565b610d5f610120830186610bff565b818103610140830152610d728185610c0e565b9050818103610160830152610d878184610c0e565b90509d9c50505050505050505050505050565b6000604051905081810181811067ffffffffffffffff82111715610dc157610dc0610f6e565b5b8060405250919050565b600067ffffffffffffffff821115610de657610de5610f6e565b5b601f19601f8301169050602081019050919050565b600081519050919050565b600082825260208201905092915050565b6000610e2282610e29565b9050919050565b600073ffffffffffffffffffffffffffffffffffffffff82169050919050565b6000819050919050565b82818337600083830152505050565b60005b83811015610e80578082015181840152602081019050610e65565b83811115610e8f576000848401525b50505050565b60006002820490506001821680610ead57607f821691505b60208210811415610ec157610ec0610f3f565b5b50919050565b6000610ed282610e49565b91507fffffffffffffffffffffffffffffffffffffffffffffffffffffffffffffffff821415610f0557610f04610f10565b5b600182019050919050565b7f4e487b7100000000000000000000000000000000000000000000000000000000600052601160045260246000fd5b7f4e487b7100000000000000000000000000000000000000000000000000000000600052602260045260246000fd5b7f4e487b7100000000000000000000000000000000000000000000000000000000600052604160045260246000fd5b6000601f19601f8301169050919050565b610fb781610e17565b8114610fc257600080fd5b50565b610fce81610e49565b8114610fd957600080fd5b5056fea26469706673582212201e3553baca034152d6c1e91bd2469a9a15f0c585603e7c901a982794617f142c64736f6c63430008000033",
  "immutableReferences": {},
  "source": "// SPDX-License-Identifier: MIT\r\npragma solidity ^0.8.0;\r\n\r\ncontract SupplyChain {\r\n    struct Product {\r\n        uint id;\r\n        string barcodeId;\r\n        string name;\r\n        string orderNo;\r\n        string origin;\r\n        string packingDate;\r\n        string expiryDate;\r\n        string lotNo;\r\n        address sender;\r\n        address receiver;\r\n        string senderEmail;\r\n        string receiverEmail;\r\n    }\r\n\r\n    mapping(uint => Product) public products;\r\n    uint public productCount;\r\n\r\n    event ProductAdded(uint id, string name, address indexed sender, address indexed receiver);\r\n\r\n    function addProduct(\r\n        string memory _barcodeId,\r\n        string memory _name,\r\n        string memory _orderNo,\r\n        string memory _origin,\r\n        string memory _packingDate,\r\n        string memory _expiryDate,\r\n        string memory _lotNo,\r\n        address _receiver,\r\n        string memory _senderEmail,\r\n        string memory _receiverEmail\r\n    ) public {\r\n        productCount++;\r\n        products[productCount] = Product(\r\n            productCount,\r\n            _barcodeId,\r\n            _name,\r\n            _orderNo,\r\n            _origin,\r\n            _packingDate,\r\n            _expiryDate,\r\n            _lotNo,\r\n            msg.sender,\r\n            _receiver,\r\n            _senderEmail,\r\n            _receiverEmail\r\n        );\r\n\r\n        emit ProductAdded(productCount, _name, msg.sender, _receiver);\r\n    }\r\n}\r\n",
  "sourcePath": "D:\\lap\\project\\Practice\\website\\backend\\contracts\\SupplyChain.sol",
  "compiler": {
    "name": "solc",
    "version": "0.8.0+commit.c7dfd78e.Emscripten.clang"
  },
  "schemaVersion": "3.4.16",
  "updatedAt": "2025-02-09T10:43:47.569Z",
  "devdoc": {
    "kind": "dev",
    "methods": {},
    "version": 1
  },
  "userdoc": {
    "kind": "user",
    "methods": {},
    "version": 1
  }
}